{
  "address": "0x80d18Dc519c3b1FB30480e5d6F0bDCa33C4C35c5",
  "abi": [
    {
      "inputs": [],
      "stateMutability": "nonpayable",
      "type": "constructor"
    },
    {
      "anonymous": false,
      "inputs": [
        {
          "indexed": true,
          "internalType": "uint256",
          "name": "isbn",
          "type": "uint256"
        },
        {
          "indexed": false,
          "internalType": "string",
          "name": "_Judul",
          "type": "string"
        },
        {
          "indexed": false,
          "internalType": "string",
          "name": "Nama_penulis",
          "type": "string"
        },
        {
          "indexed": false,
          "internalType": "uint16",
          "name": "tahun_terbit",
          "type": "uint16"
        }
      ],
      "name": "addBuku",
      "type": "event"
    },
    {
      "anonymous": false,
      "inputs": [
        {
          "indexed": true,
          "internalType": "address",
          "name": "id",
          "type": "address"
        },
        {
          "indexed": false,
          "internalType": "string",
          "name": "name",
          "type": "string"
        }
      ],
      "name": "addadmin",
      "type": "event"
    },
    {
      "anonymous": false,
      "inputs": [
        {
          "indexed": true,
          "internalType": "uint256",
          "name": "isbn",
          "type": "uint256"
        }
      ],
      "name": "deleteBuku",
      "type": "event"
    },
    {
      "anonymous": false,
      "inputs": [
        {
          "indexed": true,
          "internalType": "uint256",
          "name": "isbn",
          "type": "uint256"
        },
        {
          "indexed": false,
          "internalType": "string",
          "name": "Judul_baru",
          "type": "string"
        },
        {
          "indexed": false,
          "internalType": "string",
          "name": "Nama_penulis_baru",
          "type": "string"
        },
        {
          "indexed": false,
          "internalType": "uint16",
          "name": "tahun_terbit_baru",
          "type": "uint16"
        }
      ],
      "name": "updateBuku",
      "type": "event"
    },
    {
      "inputs": [
        {
          "internalType": "uint256",
          "name": "_isbn",
          "type": "uint256"
        },
        {
          "internalType": "string",
          "name": "_judul",
          "type": "string"
        },
        {
          "internalType": "string",
          "name": "Nama_penulis",
          "type": "string"
        },
        {
          "internalType": "uint16",
          "name": "tahun_terbit",
          "type": "uint16"
        }
      ],
      "name": "addbuku",
      "outputs": [],
      "stateMutability": "nonpayable",
      "type": "function"
    },
    {
      "inputs": [],
      "name": "admin",
      "outputs": [
        {
          "internalType": "address",
          "name": "",
          "type": "address"
        }
      ],
      "stateMutability": "view",
      "type": "function"
    },
    {
      "inputs": [
        {
          "internalType": "uint256",
          "name": "",
          "type": "uint256"
        }
      ],
      "name": "buku",
      "outputs": [
        {
          "internalType": "uint256",
          "name": "isbn",
          "type": "uint256"
        },
        {
          "internalType": "string",
          "name": "Judul",
          "type": "string"
        },
        {
          "internalType": "string",
          "name": "penulis",
          "type": "string"
        },
        {
          "internalType": "uint16",
          "name": "tahun_terbit",
          "type": "uint16"
        },
        {
          "internalType": "bool",
          "name": "benar",
          "type": "bool"
        }
      ],
      "stateMutability": "view",
      "type": "function"
    },
    {
      "inputs": [
        {
          "internalType": "uint256",
          "name": "_isbn",
          "type": "uint256"
        }
      ],
      "name": "delatebuku",
      "outputs": [],
      "stateMutability": "nonpayable",
      "type": "function"
    },
    {
      "inputs": [],
      "name": "getBukuLength",
      "outputs": [
        {
          "internalType": "uint256",
          "name": "",
          "type": "uint256"
        }
      ],
      "stateMutability": "view",
      "type": "function"
    },
    {
      "inputs": [
        {
          "internalType": "uint256",
          "name": "_isbn",
          "type": "uint256"
        }
      ],
      "name": "getbuku",
      "outputs": [
        {
          "internalType": "uint256",
          "name": "isbn",
          "type": "uint256"
        },
        {
          "internalType": "string",
          "name": "Judul",
          "type": "string"
        },
        {
          "internalType": "string",
          "name": "penulis",
          "type": "string"
        },
        {
          "internalType": "uint16",
          "name": "tahun_terbit",
          "type": "uint16"
        }
      ],
      "stateMutability": "view",
      "type": "function"
    },
    {
      "inputs": [
        {
          "internalType": "uint256",
          "name": "_isbn",
          "type": "uint256"
        },
        {
          "internalType": "string",
          "name": "Judul_baru",
          "type": "string"
        },
        {
          "internalType": "string",
          "name": "Nama_penulis_baru",
          "type": "string"
        },
        {
          "internalType": "uint16",
          "name": "tahun_terbit_baru",
          "type": "uint16"
        }
      ],
      "name": "updatebuku",
      "outputs": [],
      "stateMutability": "nonpayable",
      "type": "function"
    }
  ],
  "transactionHash": "0x716c31a2b3ccdf98374fb677fde4e4426f65df3771e11294f26de332d57a3ddc",
  "args": [],
  "numDeployments": 1,
  "solcInputHash": "3816832348da204560ecbd26fcc9606e",
  "bytecode": "0x608060405234801561001057600080fd5b50600080546001600160a01b031916331790556112b0806100326000396000f3fe608060405234801561001057600080fd5b506004361061007d5760003560e01c80634c30b5411161005b5780634c30b541146100c0578063830efe9f146100e45780638b6a049d146100f7578063f851a4401461011a57600080fd5b8063340b6ab01461008257806341dff0b3146100975780634a378aee146100aa575b600080fd5b610095610090366004610eb6565b610145565b005b6100956100a5366004610f7d565b6103af565b6002546040519081526020015b60405180910390f35b6100d36100ce366004611006565b6106cc565b6040516100b795949392919061106c565b6100956100f2366004611006565b610814565b61010a610105366004611006565b610aae565b6040516100b794939291906110b5565b60005461012d906001600160a01b031681565b6040516001600160a01b0390911681526020016100b7565b6000546001600160a01b031633146101785760405162461bcd60e51b815260040161016f906110f6565b60405180910390fd5b60008481526001602052604090206003015462010000900460ff166101f05760405162461bcd60e51b815260206004820152602860248201527f4d6161662042756b752064656e67616e204953444e20696e6920737564616820604482015267646975706461746560c01b606482015260840161016f565b6000848152600160208181526040909220855161021593919092019190860190610cab565b506000848152600160209081526040909120835161023b92600290920191850190610cab565b5060008481526001602052604090819020600301805461ffff191661ffff84161790555184907f183b29a0d7a42b69fa9243a71378e22926eb12294811d874ffa115a74e4c1c3e906102929086908690869061112d565b60405180910390a260005b6002548110156103a85784600282815481106102bb576102bb611167565b90600052602060002090600402016000015403610396576040518060a001604052808681526020018581526020018481526020018361ffff168152602001600115158152506002828154811061031357610313611167565b9060005260206000209060040201600082015181600001556020820151816001019080519060200190610347929190610cab565b5060408201518051610363916002840191602090910190610cab565b506060820151600390910180546080909301511515620100000262ffffff1990931661ffff909216919091179190911790555b806103a081611193565b91505061029d565b5050505050565b6000546001600160a01b031633146103d95760405162461bcd60e51b815260040161016f906110f6565b60008681526001602052604090206003015462010000900460ff16156104535760405162461bcd60e51b815260206004820152602960248201527f4d6161662042756b752064656e67616e204953444e20696e692074656c6168206044820152683a32b93230b33a30b960b91b606482015260840161016f565b6040518060a0016040528087815260200186868080601f016020809104026020016040519081016040528093929190818152602001838380828437600092019190915250505090825250604080516020601f870181900481028201810190925285815291810191908690869081908401838280828437600092018290525093855250505061ffff8416602080840191909152600160409384018190528a8352808252929091208351815583820151805191936105159390850192910190610cab565b5060408201518051610531916002840191602090910190610cab565b506060820151600390910180546080909301511515620100000262ffffff1990931661ffff9092169190911791909117905560405186907ff2efcbbb8ccaed9e5836cc4b81342c47fa877e0f6fd86450bc9fc51d7c161c389061059d90889088908890889088906111d5565b60405180910390a260026040518060a0016040528088815260200187878080601f016020809104026020016040519081016040528093929190818152602001838380828437600092019190915250505090825250604080516020601f880181900481028201810190925286815291810191908790879081908401838280828437600092018290525093855250505061ffff85166020808401919091526001604090930183905284548084018655948252908190208351600490950201938455828101518051939493610676938501929190910190610cab565b5060408201518051610692916002840191602090910190610cab565b506060820151600390910180546080909301511515620100000262ffffff1990931661ffff90921691909117919091179055505050505050565b6001602081905260009182526040909120805491810180546106ed90611213565b80601f016020809104026020016040519081016040528092919081815260200182805461071990611213565b80156107665780601f1061073b57610100808354040283529160200191610766565b820191906000526020600020905b81548152906001019060200180831161074957829003601f168201915b50505050509080600201805461077b90611213565b80601f01602080910402602001604051908101604052809291908181526020018280546107a790611213565b80156107f45780601f106107c9576101008083540402835291602001916107f4565b820191906000526020600020905b8154815290600101906020018083116107d757829003601f168201915b5050506003909301549192505061ffff81169060ff620100009091041685565b6000546001600160a01b0316331461083e5760405162461bcd60e51b815260040161016f906110f6565b60008181526001602052604090206003015462010000900460ff166108b55760405162461bcd60e51b815260206004820152602760248201527f4d6161662042756b752064656e67616e204953444e20696e692074656c6168206044820152666469686170757360c81b606482015260840161016f565b6000818152600160208190526040822082815591906108d690830182610d2f565b6108e4600283016000610d2f565b50600301805462ffffff1916905560405181907f678ab3d427aa1bad2540dd825e3a20f7d98e13b64889b45349d2e96b87ce7d5e90600090a260005b600254811015610aaa57816002828154811061093e5761093e611167565b90600052602060002090600402016000015403610a98576002546109649060019061124d565b811015610a42576002805461097b9060019061124d565b8154811061098b5761098b611167565b9060005260206000209060040201600282815481106109ac576109ac611167565b90600052602060002090600402016000820154816000015560018201816001019080546109d890611213565b6109e3929190610d6c565b5060028201816002019080546109f890611213565b610a03929190610d6c565b506003918201805491909201805461ffff90921661ffff19831681178255925462ffffff19909216909217620100009182900460ff1615159091021790555b6002805480610a5357610a53611264565b60008281526020812060046000199093019283020181815590610a796001830182610d2f565b610a87600283016000610d2f565b50600301805462ffffff1916905590555b80610aa281611193565b915050610920565b5050565b600060608082805b600254811015610ca2578560028281548110610ad457610ad4611167565b90600052602060002090600402016000015403610c9057600060028281548110610b0057610b00611167565b90600052602060002090600402016040518060a001604052908160008201548152602001600182018054610b3390611213565b80601f0160208091040260200160405190810160405280929190818152602001828054610b5f90611213565b8015610bac5780601f10610b8157610100808354040283529160200191610bac565b820191906000526020600020905b815481529060010190602001808311610b8f57829003601f168201915b50505050508152602001600282018054610bc590611213565b80601f0160208091040260200160405190810160405280929190818152602001828054610bf190611213565b8015610c3e5780601f10610c1357610100808354040283529160200191610c3e565b820191906000526020600020905b815481529060010190602001808311610c2157829003601f168201915b50505091835250506003919091015461ffff81166020808401919091526201000090910460ff161515604092830152825190830151918301516060909301519098509096509094509250610ca4915050565b80610c9a81611193565b915050610ab6565b505b9193509193565b828054610cb790611213565b90600052602060002090601f016020900481019282610cd95760008555610d1f565b82601f10610cf257805160ff1916838001178555610d1f565b82800160010185558215610d1f579182015b82811115610d1f578251825591602001919060010190610d04565b50610d2b929150610de7565b5090565b508054610d3b90611213565b6000825580601f10610d4b575050565b601f016020900490600052602060002090810190610d699190610de7565b50565b828054610d7890611213565b90600052602060002090601f016020900481019282610d9a5760008555610d1f565b82601f10610dab5780548555610d1f565b82800160010185558215610d1f57600052602060002091601f016020900482015b82811115610d1f578254825591600101919060010190610dcc565b5b80821115610d2b5760008155600101610de8565b634e487b7160e01b600052604160045260246000fd5b600082601f830112610e2357600080fd5b813567ffffffffffffffff80821115610e3e57610e3e610dfc565b604051601f8301601f19908116603f01168101908282118183101715610e6657610e66610dfc565b81604052838152866020858801011115610e7f57600080fd5b836020870160208301376000602085830101528094505050505092915050565b803561ffff81168114610eb157600080fd5b919050565b60008060008060808587031215610ecc57600080fd5b84359350602085013567ffffffffffffffff80821115610eeb57600080fd5b610ef788838901610e12565b94506040870135915080821115610f0d57600080fd5b50610f1a87828801610e12565b925050610f2960608601610e9f565b905092959194509250565b60008083601f840112610f4657600080fd5b50813567ffffffffffffffff811115610f5e57600080fd5b602083019150836020828501011115610f7657600080fd5b9250929050565b60008060008060008060808789031215610f9657600080fd5b86359550602087013567ffffffffffffffff80821115610fb557600080fd5b610fc18a838b01610f34565b90975095506040890135915080821115610fda57600080fd5b50610fe789828a01610f34565b9094509250610ffa905060608801610e9f565b90509295509295509295565b60006020828403121561101857600080fd5b5035919050565b6000815180845260005b8181101561104557602081850181015186830182015201611029565b81811115611057576000602083870101525b50601f01601f19169290920160200192915050565b85815260a06020820152600061108560a083018761101f565b8281036040840152611097818761101f565b61ffff95909516606084015250509015156080909101529392505050565b8481526080602082015260006110ce608083018661101f565b82810360408401526110e0818661101f565b91505061ffff8316606083015295945050505050565b6020808252601f908201527f48616e79612061646d696e2079616e67206461706174206d656e676564697400604082015260600190565b606081526000611140606083018661101f565b8281036020840152611152818661101f565b91505061ffff83166040830152949350505050565b634e487b7160e01b600052603260045260246000fd5b634e487b7160e01b600052601160045260246000fd5b6000600182016111a5576111a561117d565b5060010190565b81835281816020850137506000828201602090810191909152601f909101601f19169091010190565b6060815260006111e96060830187896111ac565b82810360208401526111fc8186886111ac565b91505061ffff831660408301529695505050505050565b600181811c9082168061122757607f821691505b60208210810361124757634e487b7160e01b600052602260045260246000fd5b50919050565b60008282101561125f5761125f61117d565b500390565b634e487b7160e01b600052603160045260246000fdfea2646970667358221220b3740cefa4112fe6eead3917378830e03952842e2ef732d1e9c2a28c051727a864736f6c634300080d0033",
  "devdoc": {
    "kind": "dev",
    "methods": {},
    "version": 1
  },
  "userdoc": {
    "kind": "user",
    "methods": {},
    "version": 1
  },
  "storageLayout": {
    "storage": [
      {
        "astId": 82,
        "contract": "contracts/Perpustakaan.sol:Perpustakaan",
        "label": "admin",
        "offset": 0,
        "slot": "0",
        "type": "t_address"
      },
      {
        "astId": 98,
        "contract": "contracts/Perpustakaan.sol:Perpustakaan",
        "label": "buku",
        "offset": 0,
        "slot": "1",
        "type": "t_mapping(t_uint256,t_struct(identitas_buku)93_storage)"
      },
      {
        "astId": 102,
        "contract": "contracts/Perpustakaan.sol:Perpustakaan",
        "label": "book",
        "offset": 0,
        "slot": "2",
        "type": "t_array(t_struct(identitas_buku)93_storage)dyn_storage"
      }
    ],
    "types": {
      "t_address": {
        "encoding": "inplace",
        "label": "address",
        "numberOfBytes": "20"
      },
      "t_array(t_struct(identitas_buku)93_storage)dyn_storage": {
        "base": "t_struct(identitas_buku)93_storage",
        "encoding": "dynamic_array",
        "label": "struct Perpustakaan.identitas_buku[]",
        "numberOfBytes": "32"
      },
      "t_bool": {
        "encoding": "inplace",
        "label": "bool",
        "numberOfBytes": "1"
      },
      "t_mapping(t_uint256,t_struct(identitas_buku)93_storage)": {
        "encoding": "mapping",
        "key": "t_uint256",
        "label": "mapping(uint256 => struct Perpustakaan.identitas_buku)",
        "numberOfBytes": "32",
        "value": "t_struct(identitas_buku)93_storage"
      },
      "t_string_storage": {
        "encoding": "bytes",
        "label": "string",
        "numberOfBytes": "32"
      },
      "t_struct(identitas_buku)93_storage": {
        "encoding": "inplace",
        "label": "struct Perpustakaan.identitas_buku",
        "members": [
          {
            "astId": 84,
            "contract": "contracts/Perpustakaan.sol:Perpustakaan",
            "label": "isbn",
            "offset": 0,
            "slot": "0",
            "type": "t_uint256"
          },
          {
            "astId": 86,
            "contract": "contracts/Perpustakaan.sol:Perpustakaan",
            "label": "Judul",
            "offset": 0,
            "slot": "1",
            "type": "t_string_storage"
          },
          {
            "astId": 88,
            "contract": "contracts/Perpustakaan.sol:Perpustakaan",
            "label": "penulis",
            "offset": 0,
            "slot": "2",
            "type": "t_string_storage"
          },
          {
            "astId": 90,
            "contract": "contracts/Perpustakaan.sol:Perpustakaan",
            "label": "tahun_terbit",
            "offset": 0,
            "slot": "3",
            "type": "t_uint16"
          },
          {
            "astId": 92,
            "contract": "contracts/Perpustakaan.sol:Perpustakaan",
            "label": "benar",
            "offset": 2,
            "slot": "3",
            "type": "t_bool"
          }
        ],
        "numberOfBytes": "128"
      },
      "t_uint16": {
        "encoding": "inplace",
        "label": "uint16",
        "numberOfBytes": "2"
      },
      "t_uint256": {
        "encoding": "inplace",
        "label": "uint256",
        "numberOfBytes": "32"
      }
    }
  }
}